:020000040000FA
:06000000C5EF0EF0120036
:0400080061EF07F0AD
:06002A000100EC1D0000C6
:08003000A9010000120000000C
:0800380058EC05F0FB0EDBCFD4
:10004000F3FFDB06F35000090AE0A6EC05F0FA0E18
:1000500011EC06F0F3E1151CF1E1010E01D0000EE8
:1000600087EF05F058EC05F03B0EE12402E3E16870
:10007000E652E16E010EDB6A020EDB6AF90EDBCF9F
:10008000F6FFFA0EDBCFF7FFFB0EDBCFF8FF080021
:10009000F550DF6EDF5002E1ABEF04F0250EDF5CC0
:1000A00002E09EEF04F0030EDB6A040EDB6A050E2D
:1000B000DB6A060EDB6A070EDB6AC0EC04F02D0E6D
:1000C000DF5C0CE02B0EDF5C09E0200EDF5C06E05D
:1000D000230EDF5C03E0300EDF5C1AE1DF50300AF4
:1000E00014E0130A0FE0030A0AE00B0A05E0060A0F
:1000F000E4E1030EDB80E1D7030EDB82DED7030EE3
:10010000DB84DBD7030EDB86D8D7030EDB88D5D79D
:100110002A0EDF5C1BE1BCEC04F00AEC05F010E0F9
:10012000030EDB8008680968130EDBCF0DF0140E98
:10013000DBCF0EF0B1EC0BF0040E06C0DBFF03D0FA
:10014000130EF3EC04F0C0EC04F00BD0090EDB6AE4
:1001500061EC05F003E0D5EC05F0FAD7090EF3ECFD
:1001600004F0030EDBB0DB982E0EDF5C1BE1C0EC6D
:1001700004F02A0EDF5C0BE1BCEC04F00AEC05F0A5
:1001800003E1130E45EC05F0C0EC04F00BD0090EB2
:10019000DB6A61EC05F003E0D5EC05F0FAD7090E57
:1001A00045EC05F0680EDF5C07E1C0EC04F0680E7A
:1001B000DF5C1DE1030E18D0740EDF5C17E07A0ED1
:1001C000DF5C14E0480EDF5C06E0540EDF5C03E009
:1001D0005A0EDF5C02E1020E07D06C0EDF5C03E01A
:1001E0006A0EDF5C04E1010E98EC05F0C9DBDF501C
:1001F0006E0A01E17FD31E0A01E192D1200A01E1DA
:100200008FD13F0A01E149D11A0A01E146D10D0A15
:1002100001E143D1200A01E140D13A0A01E13DD197
:10022000200A01E13AD1260A01E135D10D0A01E1A6
:1002300032D11A0A01E1D9D0200A4AE0300A1FE07F
:10024000460A0EE0250A01E083D3D950F90FE96E82
:10025000FF0EDA20EA6E010EEE5E000EEE5AEE5A46
:10026000A6EC05F0250EE66E95DB03E1151C01E119
:1002700069D3A2EC05F001E26BD3DB2A69D3080E47
:10028000DB6A040EDB50010806E2040EDB046AECB4
:1002900005F0DB508BDB080EDB5009E0030EDB5072
:1002A000010B05E172DB01E04DD3080EDB6A64DB74
:1002B000EFCFDFFF1AEC06F003E1151C01E142D39A
:1002C000A2EC05F001E3DB2A60DB01E141D33AD384
:1002D000070EDB5002080FE1E6EC05F0030EADEC73
:1002E00005F00E0EEECFDBFF0F0EEECFDBFF100E94
:1002F000EECFDBFF20D0F70EDBCF17F0F80EDBCF11
:1003000018F0020E175E000E185AF70E17C0DBFF2A
:10031000F80E18C0DBFF17C0E9FF18C0EAFF9DEC1C
:1003200005F0166A0E0E14C0DBFF0F0E15C0DBFFC2
:10033000100E16C0DBFF0E0EDBCFE6FF0F0EDBCF7D
:10034000E6FF100EDBCFE6FF7CEC0DF0E552E55248
:10035000E552130E07C0DBFF140E08C0DBFF060ECC
:10036000DB5005E0130EE1EC05F001E26ADB05EC81
:1003700006F002E2130E37DBC8EC05F006E0040ECF
:10038000E1EC05F002E2050E2EDB030EDBB005D03A
:10039000FCDA01E0D7D2080EDB6A090EDB6A0E0E2A
:1003A000DBCFF6FF0F0EDBCFF7FF100EDBCFF8FF32
:1003B0000800F550DF6EDF5014E00BEC06F011E2A0
:1003C0001AEC06F003E1151C01E1BCD2BBDB01E332
:1003D000DB2A090EDB2AD9500E0FE96E000ECBDBAB
:1003E000E7D7D3DA01E1B4D2ADD2C6DA110EEECF3F
:1003F000DBFF120EEDCFDBFF110EDBCFE6FF120E9F
:10040000DBCFE6FF6EEC0DF0E552E552130EF3CFB5
:10041000DBFF140EF4CFDBFF060EDB5004E0130EFF
:10042000D0DB01E20EDB05EC06F002E2130EDBDAB4
:10043000AFDB05E0040EC5DB02E2050ED4DA030EE5
:10044000DBB005D0A2DA01E07DD2080EDB6A090E2E
:10045000DB6A110EDBCFE9FF120EDBCFEAFFEFCF35
:10046000DFFFDF5014E0D7DB12E2E4DB03E1151C11
:1004700001E168D267DB01E3DB2A090EDB2A110EFA
:10048000DB2ADBCFE9FF120EE8E3DB2AE6D77DDAD1
:1004900001E15ED257D2030EDB8E070EDB0410E1C2
:1004A00095DB040E5ADB0A0EEECFDBFF0B0EEECF10
:1004B000DBFF0C0EEECFDBFF0D0EEECFDBFF6CD0C3
:1004C000070EDB5003082CE1030EDBAE0DD0B2DAD1
:1004D000020E76DAEFCF14F0156A166A176A14AEB8
:1004E00039D01568166835D0F70EDBCF15F0F80E49
:1004F000DBCF16F0020E155E000E165AF70E15C071
:10050000DBFFF80E16C0DBFF15C0E9FF16C0EAFFDF
:10051000EFCF14F00A0E14C0DBFF0B0EDB6A38D0ED
:10052000070EDB50020809E1030EDBAE04D059DBF5
:1005300016AE10D00ED055DB0DD0030EDBAE12D0B0
:1005400079DA020E3DDAF9DA166A176A15AE02D0C8
:1005500016681768E2DA0C0E16C0DBFF0D0E17C026
:10056000DBFF1AD0F70EDBCF16F0F80EDBCF17F05B
:10057000020E165E000E175AF70E16C0DBFFF80EBD
:1005800017C0DBFF16C0E9FF17C0EAFFD6DAC5DAED
:100590000C0EDB6A0D0EDB6A060EDB5005E1010E68
:1005A000F36E050EF3CFDBFF150EDB6A160EDB6A6A
:1005B000D950370F146E000EDA20156E390E14C0A4
:1005C000DBFF3A0E15C0DBFF380EDB6A080EDB6A74
:1005D0000A0EAEDADF50780A12E0200A10E0280A8C
:1005E0000CE0200A0AE03F0A06E00D0A02E0200AB9
:1005F00008E1020E05D0080E03D0080EDF26100E0B
:1006000097DA030EDBBE02D0DB92DB94DB50800B6B
:1006100024E08ADAD890030EEB50000A08E6000EB8
:10062000EE5C000EEE58000EEE58000EEE5815E28D
:1006300013DA0B680C680D680E6802EC0DF00A0EF8
:1006400002C0DBFF0B0E03C0DBFF0C0E04C0DBFFA0
:100650000D0E05C0DBFF2D0E08D0030EDBA202D06D
:100660002B0E03D0DBA408D0200EF36E170EF3CFB1
:10067000DBFF150EDB2A02D0170EDB6A050EDB50FE
:1006800003E1B7D901E189D0C20E146E1D0E156EBB
:10069000000E166E070EDBCF17F0186A196A1A6A79
:1006A00017C00BF018C00CF019C00DF01AC00EF0F6
:1006B000D3D905EC0EF014500224F36E155003202C
:1006C000F46E16500420F86EF4CFF7FFF3CFF6FF68
:1006D0000800090EF5CFDBFF580EDF5C0FE1610E5D
:1006E000F36E090E7BD90AE3200E146E090EDBCFE0
:1006F000E7FF1450E75E090EE7CFDBFF070EDBCF05
:1007000014F0156A166A176A0FDA14C00BF015C0D8
:100710000CF016C00DF017C00EF0EECF06F0EECFC5
:1007200007F0EECF08F0EFCF09F005EC0EF009C0AE
:10073000EDFF08C0EDFF07C0EDFF06C0EFFF390E6B
:10074000DBCFE9FFDB063A0EDBCFEAFF01E2DB0697
:10075000090EDBCFEFFF150EDB2A4BD995E1030E17
:10076000DBA61DD06F0EDF5C06E1C1D918E3150EC4
:10077000DB285BDA14D0780EDF5C09E0580EDF5C12
:1007800006E0620EDF5C03E0420EDF5C08E1020E71
:10079000F36E160EF3CFDBFF02D0150EDB6A030EED
:1007A000DB50100B0EE0040EDBCF14F0050EDB5017
:1007B000D880145406E2060EDB5003E1040EDB5031
:1007C00034DA95D90AE2050EDBCFE7FF150EDB50D0
:1007D000E75E050EE7CFDBFF02D0050EDB6A040EF5
:1007E000DBCF14F0160E45D9D880145414E2160E3F
:1007F000DBCFE6FF150EDBCFE6FF040EDBCFE6FF17
:10080000050EDB50E552E75CE552D880E754E5522F
:10081000D880E7545FD9030EDB50010B0BE1080EC3
:10082000DB5008E0B2D801E08DD0080EDB50BED816
:10083000080EDB6A170EDB5007E088D9170EF1D9D6
:1008400003E1151C01E17ED0160EDB5016E07ED9C7
:10085000300EE66E9FD802E1151C74E077D9DFCF29
:10086000E6FF83EC0CF0E552E552E552F4CF15F0CB
:100870000001F31C02E1151C65E0050EDBCF14F04E
:10088000160EDB50D880145409E2050EDBCFE7FFCB
:10089000160EDB50E75E050EE7CFDBFF300EE66E8F
:1008A000050ECBD94FE1390EDB2ADBCFE9FF3A0E3B
:1008B00001E3DB2ADBCFEAFF090EEFCFDBFFDB50E2
:1008C0000EE044D9090EADD902E1151C3BE0390E0A
:1008D000DB2ADBCFE9FF3A0EEDE3DB2AEBD755D875
:1008E00031E1160EDBCFE6FF080EC3D8E552E72450
:1008F0005DD82ED0070EDB50030A1CE0010A14E07D
:10090000030A07E07BD9DBCFEEFF020EDBCFEDFF62
:100910001FD0F5D8196A17AE02D0186819682CD8FC
:10092000BCD819C0EEFF14D0EAD817BE186824D876
:10093000B4D80ED063D9DBCFEFFF0AD07BD905E165
:10094000151C03E1F368F46810D0FCD801E3DB2A3E
:1009500079D947EF00F0010EDBCF14F0020EDBCFA8
:1009600015F014C0F3FF15C0F4FF3B0EE15C02E28A
:10097000E16AE552E16ECBD029D9020EADEF05F068
:1009800061D90800F550DF6E1200200EE66E080EE9
:100990001DEF06F083EC0CF0E552E552E552F3CF83
:1009A00014F0F4CF15F00001F31C1200146E156A58
:1009B000D950010F4DD91450EE261550ED221200DA
:1009C000185E000E195AF70E18C0DBFFF80E19C09A
:1009D000DBFF18C0E9FF19C0EAFF1200DBCFF4FF0C
:1009E000F350F45C1200DB50E76E040EE7CFDBFF40
:1009F00012000A0EDBCF14F00B0EDBCF15F00C0E3D
:100A0000DBCF16F00D0EDBCF17F0145015101610BB
:100A100017101200130EEECFDBFF140EEDCFDBFF2D
:100A2000130EDBCF14F0140EDBCF15F00001800E97
:100A300015141200F70EDBCF18F0F80EDBCF19F00B
:100A40001200050EDB50E66ED950130F01D9E552A6
:100A5000E750EE6EED6A12000A0EDBCF06F00B0EC9
:100A6000DBCF07F00C0EDBCF08F00D0EDBCF09F06B
:100A70001200DBCFE6FF150EDBCFE6FF050EDB50E5
:100A8000E552E724E552E7241200DB50CED8010EF0
:100A9000F36E060EF3CFDBFF1200EE50EFCFEAFF4E
:100AA000E96E16C0EEFF17C0EEFF18C0EEFF120091
:100AB000D9CFE6FFDACFE6FFE1CFD9FFE2CFDAFF09
:100AC0001200DFCFE6FFE66AA3EC0EF0E552E55236
:100AD000F3501200E76E080EE7CFDBFF1200EECFF7
:100AE00014F0EECF15F0EFCF16F0176A1200050ED6
:100AF000DBCF14F0150EDB50D88014541200010E19
:100B0000DBCF16F0020EDBCF17F0186A1200E552A9
:100B1000E5CFDAFFE7CFD9FF12000A0E14C0DBFFE2
:100B20000B0E15C0DBFF1200D9500A0F28EF06F09C
:100B3000F36E070EF3CFDBFF1200EECF14F0EFCF12
:100B400015F01200010EDB2A020E1200FC0EDBCFA4
:100B5000E6FFFD0EDBCFE6FF1200145E000E155A15
:100B6000F70E14C0DBFFF80E15C0DBFF14C0E9FF61
:100B700015C0EAFF1200DA20EA6EEF2AEECFF6FF88
:100B8000000EEF22EECFF7FFEF22EECFF8FF1200BC
:100B9000040EDBCFE6FF130EDB50E552E75C9ADF75
:100BA000DB5004DF060EDB501200090EDB500A0D8D
:100BB000F350DF24D00FE76E090EE7CFDBFFC0EF65
:100BC00004F0DB50F36E050EEEEF04F0F70EDBCF12
:100BD00014F0F80EDBCF15F01200DFCFE6FFCAEFFE
:100BE00004F028DF030EECDE6FEF05F01CEC00F0E4
:100BF000E552E552E552E55200091200BDDEEE5025
:100C0000EFCFEAFFE96E010E1200130EDB50F36E18
:100C1000040EEEEF04F0040EDB50F36E090EEEEF5F
:100C200004F0DBCFE6FFCAEF04F0E76E050EE7CF76
:100C3000DBFF12008BDFEDEF05F0DBCFE6FF86DF99
:100C4000F6EF05F0D950F90FE96EFF0EBBEF05F096
:0A0C5000E96E000EDA20EA6E1200D1
:060C5A00D9CFE6FFE1CF57
:100C6000D9FF839483968288FE0EDB380F0B010B2D
:100C7000E8B08388E8A08398FE0EDB50E00BE838EC
:100C8000E840010BE8B0838AE8A0839A060E146E50
:100C9000FE0EDB5014C0E7FFE75204E0E8427F0B92
:100CA000E706FCE1010BE8B0838CE8A0839CFE0E14
:100CB000DB44010B010BE8B0838EE8A0839E829891
:100CC000320EE66EB5EC0EF0E5528288FE0EDB5079
:100CD000010BE8B08388E8A08398FE0EDB407F0B11
:100CE000010BE8B0838AE8A0839AFE0EDB40E8405F
:100CF0003F0B010BE8B0838CE8A0839CFE0EDB4029
:100D0000E840E8401F0B010BE8B0838EE8A0839E0B
:100D10008298320EE66EB5EC0EF0E552E552E7CF62
:100D2000D9FF1200D9CFE6FFE1CFD9FF83848396A4
:100D30008288FE0EDB380F0B010BE8B08388E8A039
:100D40008398FE0EDB50E00BE838E840010BE8B07A
:100D5000838AE8A0839A060E146EFE0EDB5014C040
:100D6000E7FFE75204E0E8427F0BE706FCE1010BF6
:100D7000E8B0838CE8A0839CFE0EDB44010B010BE2
:100D8000E8B0838EE8A0839E8298320EE66EB5ECC2
:100D90000EF0E5528288FE0EDB50010BE8B083882E
:100DA000E8A08398FE0EDB407F0B010BE8B0838A3E
:100DB000E8A0839AFE0EDB40E8403F0B010BE8B051
:100DC000838CE8A0839CFE0EDB40E840E8401F0BCC
:100DD000010BE8B0838EE8A0839E8298320EE66E07
:100DE000B5EC0EF0E552E552E7CFD9FF1200D9CFAE
:100DF000E6FFE1CFD9FFFD0EDBCFF6FFFE0EDBCF26
:100E0000F7FF0800F55011E0FD0EDBCFF6FFFE0EF8
:100E1000DBCFF7FF0800F550E66E84DFE552FD0EEC
:100E2000DB2AFE0E01E3DB2AE6D7E552E7CFD9FF46
:100E30001200D9CFE6FFE1CFD9FFFD0EDBCFE9FFEE
:100E4000FE0EDBCFEAFFEF5010E0FD0EDBCFE9FF37
:100E5000FE0EDBCFEAFFEF50E66E64DFE552FD0EDB
:100E6000DB2AFE0E01E3DB2AE8D7E552E7CFD9FF04
:100E70001200010EE66EF1DEE552320EE66EB5ECC2
:100E80000EF0E5521200030EE66EE7DEE552020EAA
:100E9000E66EE3DEE552280EE66EDFDEE552060E74
:100EA000E66EDBDEE5520C0EE66ED7DEE552010E95
:100EB000E66ED3DEE552320EE66EB5EC0EF0E5528C
:100EC0001200DACFE4FFE2CFDAFFE652F2A20FD04F
:100ED0000101AD6BAE6BF292AB51AC1102E0000EB2
:100EE00001D0010EAB6FAC6B800B01E0AC69E55239
:100EF000E5CFDAFF11000D0EE66E0C0EE66EAB0EBE
:100F0000E66E3AEC0DF0E552E552E552050EE66E5E
:100F100048EC0EF0E552870EE66E76EC0EF0E552E8
:100F2000F2EC0EF0EAEC0EF0000901E0FBD729EC40
:100F30000EF0F3CF00F1F4CF01F100C118F001C1C0
:100F400019F0050E1902F3CF19F01802F3CF18F0BB
:100F5000F450192618C008F019C009F003EC0AF083
:100F600007C014F008C015F009C016F00AC017F049
:100F70000C6AC00E0D6E7F0E0E6E440E0F6E14C006
:100F800007F015C008F016C009F017C00AF016ECFB
:100F90000AF007C004F108C005F109C006F10AC053
:100FA00007F10C6A0D6A7A0E0E6E440E0F6E04C1C4
:100FB00007F005C108F006C109F007C10AF069ECA5
:100FC0000AF0FCEC0AF008C00CF109C00DF18F0E1C
:100FD000E66E76EC0EF0E552F2EC0EF0EAEC0EF076
:100FE000000901E0FBD729EC0EF0F3CF02F1F4CFBA
:100FF00003F102C118F003C119F0050E1902F3CF75
:1010000019F01802F3CF18F0F450192618C008F0A0
:1010100019C009F003EC0AF007C014F008C015F07D
:1010200009C016F00AC017F00C6AC00E0D6E7F0ED4
:101030000E6E440E0F6E14C007F015C008F016C0F7
:1010400009F017C00AF016EC0AF007C008F108C052
:1010500009F109C00AF10AC00BF10C6A0D6AC80E49
:101060000E6E420E0F6E08C107F009C108F00AC1EA
:1010700009F00BC10AF069EC0AF0FCEC0AF008C0B8
:101080000EF109C00FF1EFEF0EF0956A800E946E2D
:10109000030E936E0E0EC16E826AF28EF288F19C80
:1010A000F2DE800EE66ED9DDE5529C0EE66E1B0E7A
:1010B000E66E9DDEE552E5520A0EE66EE66A3C0EED
:1010C000E66EC5EC0CF0E552E552E552FA0EE66E1E
:1010D00048EC0EF0E552FA0EE66E48EC0EF0E552E2
:1010E0000101AF6BB06B320EB0AF02D0D89003D01D
:1010F000AF5D000EB05917E2B16BB26BFCDEAFC151
:10110000E9FFB0C1EAFFD890E936EA36110EE926C8
:10111000010EEA220CC1EEFF0DC1EDFF0101AF2B64
:10112000000EB023E0D7AF6BB06B320EB0AF02D081
:10113000D89003D0AF5D000EB05915E2AFC1E9FF02
:10114000B0C1EAFFD890E936EA36110EE926010E61
:10115000EA22B151EE24B16FB251EE20B26FAF2B43
:10116000000EB023E2D7B1C175F1B2C176F1320EF3
:101170000D6E0E6A75C108F076C109F0D6EC0AF062
:1011800008C075F109C076F10101AB51AC1101E065
:101190008CD0800EE66E61DDE5528B0EE66E1B0E86
:1011A000E66E25DEE552E5520EC1E6FF0FC1E6FF11
:1011B00075C114F076C115F00A0E0D6E0E6A14C0DA
:1011C00008F015C009F0D6EC0AF004C014F005C010
:1011D00015F014C0E6FF15C0E6FF75C116F076C124
:1011E00017F00A0E0D6E0E6A16C008F017C009F04F
:1011F000D6EC0AF008C016F009C017F016C0E6FFDA
:1012000017C0E6FF760E186E1B0E196E1A6A18C00C
:10121000E6FF19C0E6FF1AC0E6FF770EE66E010E84
:10122000E66EDEEC0BF01B6E0B0EE15E1B50C00E8B
:10123000E66E13DDE552770EE66E010EE66EF9DD21
:10124000E552E5528292829082940101B76BB86BAD
:10125000B351B41115E101010D3504E20C51F4084C
:10126000010E0D5507E30F3504E20E512C08010E57
:101270000F5506E2010E0101B36FB46BAB6FAC6B9F
:101280000101D8900D5104E6F40E0C5D010E0D59CC
:101290000BE2D8900F5104E62C0E0E5D010E0F5993
:1012A00003E20101B36BB46BAAD0B351B4110DE1E9
:1012B00082828284800EE66ED0DCE552650EE66E98
:1012C0001B0EE66E94DDE552E55201010D3504E298
:1012D0000C51F408010E0D5516E2800EE66EBDDCD1
:1012E000E552650EE66E1B0EE66E81DDE552E552B7
:1012F000828401010F3504E20E512C08010E0F55B6
:1013000001E2828213D00F3504E20E512C08010E47
:101310000F550CE2800EE66EA0DCE552540EE66E30
:101320001B0EE66E64DDE552E552828282800EC1BC
:10133000E6FF0FC1E6FF75C114F076C115F00A0E85
:101340000D6E0E6A14C008F015C009F0D6EC0AF054
:1013500004C014F005C015F014C0E6FF15C0E6FF88
:1013600075C116F076C117F00A0E0D6E0E6A16C022
:1013700008F017C009F0D6EC0AF008C016F009C052
:1013800017F016C0E6FF17C0E6FF760E186E1B0EAC
:10139000196E1A6A18C0E6FF19C0E6FF1AC0E6FF08
:1013A000770EE66E010EE66EDEEC0BF01B6E0B0E9A
:1013B000E15E1B50C00EE66E50DCE552770EE66E25
:1013C000010EE66E36DDE552E5520101B751B81166
:1013D00016E1ACA2FED7420E146E1B0E156E166AF5
:1013E00014C0E6FF15C0E6FF16C0E6FFD3EC0DF013
:1013F000E552E552E552010E0101B76FB86B70D6A8
:021400001200D8
:0E140200019E08D0019E09AE05D0086C091E9F
:10141000E86A0922018E09C003F008C002F0136ACD
:10142000126A8E0E046E056A47EF0BF0016A83ECB8
:101430000BF09BEC0BF001B62BEF0BF001A205D0EB
:1014400001BA2BEF0BF032EF0BF001BA3EEF0BF0CD
:1014500001A005D001B82BEF0BF03EEF0BF001B867
:1014600032EF0BF0056A7F0E0A24046EE86A05224B
:101470000F50045EE86A055A1A0E106E0A6A126A64
:10148000136A026A036A0C50075E0D50085A0E5028
:10149000095A000E0A5A09E70C5007260D50082277
:1014A0000E500922000E0A2201D0128AD890073667
:1014B000083609360A36D890123613360236033605
:1014C000102EE1D7095008100710D8A4128A47EF50
:1014D0000BF0016A83EC0BF09BEC0BF001B62BEFE9
:1014E0000BF001A205D001B82BEF0BF032EF0BF09F
:1014F00001AA05D001B02BEF0BF032EF0BF001B0D9
:1015000002D001A802D03EEF0BF0056A0F500A246A
:10151000046EE86A05227E0E045EE86A055A126AC5
:10152000136A026A036A0E500902F4CF03F0F3CF84
:1015300002F00D500902F3501326F4500222000E5F
:1015400003220E500802F3501326F4500222000E1C
:1015500003220C500902F3501226F4501322000EFD
:10156000022203220D500802F3501226F4501322D7
:10157000000E022203220E500702F3501226F450EE
:101580001322000E022203220C500802F4501226ED
:10159000000E1322022203220D500702F4501226DD
:1015A000000E13220222032247EF0BF0006A0EAE58
:1015B000DFEF0AF00D6C0E1EE86A0E22001E09AE67
:1015C000E7EF0AF0086C091EE86A0922001E8DEC9C
:1015D0000EF009BEF7EF0AF000AE000C086C091E11
:1015E000E86A0922046C051EE86A0522000C00BEA8
:1015F000EEEF0AF00188FF0C016A83EC0BF001B6F4
:1016000006EF0BF001A20ED001B405D07F0E096EDB
:10161000FF0E086E1FD0800E096E086A1BD0096A83
:10162000086A18D001B0FBD78F0E0A60EDD77E0E86
:101630000A64F5D78E0E0A5C05E0D89009320832AC
:101640000A2AF8D701A406D0086C091EE86A092204
:1016500009AEE5D712007F0E0A6EFF0E096E086E06
:10166000076E12007F0E01BEFF0E0A6E02D07F0EC3
:101670000A6E800E096E086A076AF3D701AE04D0BD
:10168000800E0A6E096AF7D70A6A096AF4D703500E
:10169000021013101210F8E005BEF0D703BE0CD0F4
:1016A00004500510EBE0D89012361336023603369C
:1016B0000406D8A00506F2D70550D4E10428D2E0EC
:1016C00012AE11D07F0E121402E113A00CD0132A17
:1016D000E86A0222032207E3D8800332023213327F
:1016E000042A0428BFE00450C9E013C007F002C078
:1016F00008F00334096E04300A6E09320A9E01BEF6
:101700000A8E31EF0BF009360A3602E30184017EBE
:1017100006E101800A6A096A086A076A12000A2853
:1017200003E0D88009321200D890093202E1018228
:101730001200018612000E360F3602E3018C017E84
:1017400006E101880F6A0E6A0D6A0C6A12000F2802
:1017500003E0D8800E321200D8900E32EAE1018AFE
:10176000120009C013F008C012F008500D02F4CFA7
:1017700007F0F3CF06F009500E02F4CF09F0F3CFD3
:1017800008F00D02F3500726F4500822E86A0922F7
:1017900012500E02F3500726F4500822E86A09227C
:1017A0000EAED7EF0BF01250085E1350095A13AE6D
:0C17B000000C0D50085E0E50095A000C91
:0417BC00D9CFE6FF9C
:1017C000DACFE6FFE1CFD9FFE2CFDAFFE652E65209
:1017D000E652E652D950F90F146EFF0EDA20156E5C
:1017E000020E14C0DBFF030E15C0DBFF020EDBCFC1
:1017F000E6FF030EDBCFE6FFF90EDBCFE6FFFA0EC6
:10180000DBCFE6FFFB0EDBCFE6FFD950FC0FE66E29
:10181000FF0EDA20E66E32EC00F0146E070EE15C8B
:1018200002E2E16AE552E16E1450F3CFDEFFF4CF3D
:10183000DDFFFC0EDBCFE9FFFD0EDBCFEAFFEF6A39
:10184000DECF14F0DDCF15F014C0F3FF15C0F4FFA8
:10185000040EE15C02E2E16AE552E16EE552E5CF99
:08186000DAFFE7CFD9FF120007
:081868002A0EF66E000EF76E69
:10187000000EF86E01010900F550C06F0900F55027
:10188000C16F03E1C06701D03DD00900F550BB6FC7
:101890000900F550BC6F0900F550BD6F0900090043
:1018A000F550E96E0900F550EA6E090009000900DB
:1018B000F550BE6F0900F550BF6F09000900F6CF63
:1018C000C2F1F7CFC3F1F8CFC4F1BBC1F6FFBCC181
:1018D000F7FFBDC1F8FF0101BE5302E1BF5307E0AE
:1018E0000900F550EE6EBE07F8E2BF07F9D7C2C196
:1018F000F6FFC3C1F7FFC4C1F8FF0101C007000E26
:06190000C15BBFD712001D
:0A190600D9CFE6FFDACFE6FFE1CF0C
:10191000D9FFE2CFDAFFFB0EDBCF14F0FC0EDBCFFA
:1019200015F00001800E15141AE1FB0EDBCFE9FF64
:10193000FC0EDBCFEAFFEECFF3FFEDCFF4FFEE2A94
:10194000000EEF22F3CFE9FFF4CFEAFFFD0EDBCF6D
:10195000EFFFEF50156AF36E15C0F4FF10D0FB0EC9
:10196000DB50FE0806E1FD0EDBCFE6FFD3EC0EF008
:1019700005D0FD0EDBCFE6FFF4EC0EF0E552E552AC
:0A198000E5CFDAFFE7CFD9FF120030
:06198A00D9CFE6FFDACF21
:10199000E6FFE1CFD9FFE2CFDAFFAC6AAB6AFD0E1A
:1019A000DBB0AC88DBA202D0AC8CAB8CDBB4AC8EF1
:1019B000DBA602D0AB8801D0AB8ADBA802D0AC8416
:1019C00001D0AC949E98DBAC02D09D8A01D09D9A48
:1019D0009E9ADBAE02D09D8801D09D98FB0EDB5015
:1019E000AF6EFB0EFC0EDBCF15F015C014F0156AC0
:1019F0001450B06EAC8AAB8EE552E5CFDAFFE7CF7C
:041A0000D9FF1200F8
:0C1A040006500B02F3CF02F0F4CF03F009
:101A10000C02F3500326000EF420046E06500D0253
:101A2000F3500426000EF420056E06500E02F3500B
:101A3000052607500B02F3500326F4500422000E33
:101A4000052207500C02F3500426F45005220750DB
:101A50000D02F350052608500B02F3500426F450F3
:101A6000052208500C02F350052609500B02F350D2
:041A70000526120035
:0C1A7400D9CFE6FFDACFE6FFE1CFD9FFC3
:101A8000E2CFDAFFC26AC16AC06AFC0EDB407F0B9C
:101A90003C0BC26EFB0EDB50C16EFC0EDB38F00B54
:101AA000300BC112FD0EDB50800BC06EFD0EDB381B
:101AB0000F0B070BC012FD0EDB50040DF350380B5B
:101AC000C012FC0EDBAE03D09E9C9D8CF28CC280BB
:0C1AD000E552E5CFDAFFE7CFD9FF1200A6
:041ADC00FE0EE3CF48
:101AE000E9FFFF0EE3CFEAFFF36AF46AEE5203E088
:101AF000F34AF42AFBD71200FF0EE3CFF8FFE552BA
:101B0000FF0EE3CFF7FFE552FF0EE3CFF6FFE552FE
:101B1000E66AE66AE66A0900F55209E0FD0EE32A84
:101B200005E1FE0EE32A02E1FF0EE32AF4D7FD0EE3
:101B3000E3CF07F0FE0EE3CF08F0FF0EE3CF09F08E
:021B4000120091
:0E1B4200415444303333393535383336343B73
:101B5000090D0A00524F205249204B484920474165
:101B6000532A2A2A0044616E672042616F2043682D
:101B700061792A2A2A004E683A25642E25642C2091
:101B80006B683A25642020202020002A2A4E686FA6
:101B90006D39202D204441434E2A2A0057656C633D
:061BA0006F6D65212100BC
:0A1BA600D9CFE6FFDACFE6FFE1CF6A
:101BB000D9FFE2CFDAFFACA2FED7FB0EDBCFF6FFF8
:101BC000FC0EDBCFF7FFFD0EDBCFF8FF0800F55072
:101BD000E66E5FEC0EF0E552D950FB0FE96EFF0E9A
:101BE000DA20EA6EEFCFF6FFEE2AEFCFF7FF000E16
:101BF000EE22EFCFF8FFEE220800F550DCE1E552CF
:0A1C0000E5CFDAFFE7CFD9FF1200AD
:061C0A00056A046A036A8A
:101C1000026A200EE76ED890063607360836093677
:101C200002360336043605360B50025C0C5003585E
:101C30000D5004580E50055809E30B50025E0C502D
:101C4000035A0D50045A0E50055A062AE72EE4D7BF
:021C5000120080
:0E1C5200D9CFE6FFDACFE6FFE1CFD9FFE2CF30
:101C6000DAFFE652E652C350DF6E010EC4CFDBFF4F
:101C7000DECF14F0DDCF15F014C0F3FF15C0F4FF74
:101C8000E552E552E552E5CFDAFFE7CFD9FF120082
:101C9000FF0EE3501D6EEF0E01D0F30EE76EE72E40
:101CA0004FEF0EF00C0E1C6EE76AE72E55EF0EF0AC
:0E1CB0001C2E54EF0EF01D2E4DEF0EF0120004
:021CBE00D9CF7C
:101CC000E6FFDACFE6FFE1CFD9FFE2CFDAFFACAC37
:101CD00004D0AC900101C5B3AC80FD0EDB50AD6EFD
:0C1CE000E552E5CFDAFFE7CFD9FF120094
:041CEC00D9CFE6FF67
:101CF000DACFE6FFE1CFD9FFE2CFDAFFC30EC2149D
:101D0000146EFD0EDB407F0B3C0B1410C26EE552CF
:0A1D1000E5CFDAFFE7CFD9FF12009C
:061D1A00056A046A100EC8
:101D2000E76ED89008360936043605360D50045C47
:101D30000E50055805E30D50045E0E50055A082A52
:061D4000E72EF0D71200AF
:0A1D4600F36AF46AFF0EE124E96E6F
:101D5000FF0EE220EA6EED6607D02F0EEF6404D08E
:0A1D60003A0EEF6001D0F32A1200E2
:061D6A00FF0EE3501D6EA8
:101D7000480E01D04C0EE76EE72EFED7E76AE72E3D
:0A1D8000FED71D2EF7D70000120059
:061D8A0015EE00F025EE4D
:101D900000F0F86A019C34EC0CF0F5EC0EF045EC28
:061DA00008F0FBD7120061
:0A1DA600FF0EE350ACBA04D0AF6AA0
:101DB000AB8EAC8A949CACA2FED7AD6EF36EF46A87
:021DC00012000F
:0E1DC20030313233343536373839616263647C
:031DD00065660045
:0A1DD400C250020B01E0010E1200E4
:021DDE00C290B1
:041DE0009D9C1200B4
:041DE400C2821200A5
:021DE8001200E7
:021DEA001200E5
:041DEC0000000000F3
:0E1DF0000000000000000000000000000000E5
:020000040030CA
:0100010002FC
:0100020018E5
:010003001EDE
:010005008179
:010006008178
:00000001FF
